{
	"EstructurasdeControl.sol": {
		"EstructuraDeControl": {
			"abi": [
				{
					"inputs": [
						{
							"internalType": "bool",
							"name": "condicion",
							"type": "bool"
						}
					],
					"stateMutability": "nonpayable",
					"type": "constructor"
				},
				{
					"inputs": [
						{
							"internalType": "uint256",
							"name": "",
							"type": "uint256"
						}
					],
					"name": "numeros",
					"outputs": [
						{
							"internalType": "uint256",
							"name": "",
							"type": "uint256"
						}
					],
					"stateMutability": "view",
					"type": "function"
				},
				{
					"inputs": [],
					"name": "resultado",
					"outputs": [
						{
							"internalType": "string",
							"name": "",
							"type": "string"
						}
					],
					"stateMutability": "view",
					"type": "function"
				}
			],
			"devdoc": {
				"kind": "dev",
				"methods": {},
				"version": 1
			},
			"evm": {
				"assembly": "    /* \"EstructurasdeControl.sol\":66:470  contract EstructuraDeControl {... */\n  mstore(0x40, 0x80)\n    /* \"EstructurasdeControl.sol\":167:463  constructor(bool condicion) {... */\n  callvalue\n  dup1\n  iszero\n  tag_1\n  jumpi\n  0x00\n  dup1\n  revert\ntag_1:\n  pop\n  mload(0x40)\n  sub(codesize, bytecodeSize)\n  dup1\n  bytecodeSize\n  dup4\n  codecopy\n  dup2\n  dup2\n  add\n  0x40\n  mstore\n  dup2\n  add\n  swap1\n  tag_2\n  swap2\n  swap1\n  tag_3\n  jump\t// in\ntag_2:\n    /* \"EstructurasdeControl.sol\":209:218  condicion */\n  dup1\n    /* \"EstructurasdeControl.sol\":205:341  if (condicion) {... */\n  iszero\n  tag_6\n  jumpi\n    /* \"EstructurasdeControl.sol\":234:262  resultado = \"Condicion True\" */\n  mload(0x40)\n  dup1\n  0x40\n  add\n  0x40\n  mstore\n  dup1\n  0x0e\n  dup2\n  mstore\n  0x20\n  add\n  0x436f6e646963696f6e2054727565000000000000000000000000000000000000\n  dup2\n  mstore\n  pop\n    /* \"EstructurasdeControl.sol\":234:243  resultado */\n  0x01\n    /* \"EstructurasdeControl.sol\":234:262  resultado = \"Condicion True\" */\n  swap1\n  dup2\n  tag_7\n  swap2\n  swap1\n  tag_8\n  jump\t// in\ntag_7:\n  pop\n    /* \"EstructurasdeControl.sol\":205:341  if (condicion) {... */\n  jump(tag_9)\ntag_6:\n    /* \"EstructurasdeControl.sol\":301:330  resultado = \"Condicion False\" */\n  mload(0x40)\n  dup1\n  0x40\n  add\n  0x40\n  mstore\n  dup1\n  0x0f\n  dup2\n  mstore\n  0x20\n  add\n  0x436f6e646963696f6e2046616c73650000000000000000000000000000000000\n  dup2\n  mstore\n  pop\n    /* \"EstructurasdeControl.sol\":301:310  resultado */\n  0x01\n    /* \"EstructurasdeControl.sol\":301:330  resultado = \"Condicion False\" */\n  swap1\n  dup2\n  tag_10\n  swap2\n  swap1\n  tag_8\n  jump\t// in\ntag_10:\n  pop\n    /* \"EstructurasdeControl.sol\":205:341  if (condicion) {... */\ntag_9:\n    /* \"EstructurasdeControl.sol\":364:377  uint iterador */\n  0x00\n    /* \"EstructurasdeControl.sol\":359:457  for (uint iterador = 0; iterador < 10; iterador++) {... */\ntag_11:\n    /* \"EstructurasdeControl.sol\":394:396  10 */\n  0x0a\n    /* \"EstructurasdeControl.sol\":383:391  iterador */\n  dup2\n    /* \"EstructurasdeControl.sol\":383:396  iterador < 10 */\n  lt\n    /* \"EstructurasdeControl.sol\":359:457  for (uint iterador = 0; iterador < 10; iterador++) {... */\n  iszero\n  tag_12\n  jumpi\n    /* \"EstructurasdeControl.sol\":424:431  numeros */\n  0x00\n    /* \"EstructurasdeControl.sol\":437:445  iterador */\n  dup2\n    /* \"EstructurasdeControl.sol\":424:446  numeros.push(iterador) */\n  swap1\n  dup1\n  0x01\n  dup2\n  sload\n  add\n  dup1\n  dup3\n  sstore\n  dup1\n  swap2\n  pop\n  pop\n  0x01\n  swap1\n  sub\n  swap1\n  0x00\n  mstore\n  keccak256(0x00, 0x20)\n  add\n  0x00\n  swap1\n  swap2\n  swap1\n  swap2\n  swap1\n  swap2\n  pop\n  sstore\n    /* \"EstructurasdeControl.sol\":398:408  iterador++ */\n  dup1\n  dup1\n  0x01\n  add\n  swap2\n  pop\n  pop\n    /* \"EstructurasdeControl.sol\":359:457  for (uint iterador = 0; iterador < 10; iterador++) {... */\n  jump(tag_11)\ntag_12:\n  pop\n    /* \"EstructurasdeControl.sol\":167:463  constructor(bool condicion) {... */\n  pop\n    /* \"EstructurasdeControl.sol\":66:470  contract EstructuraDeControl {... */\n  jump(tag_15)\n    /* \"#utility.yul\":88:205   */\ntag_17:\n    /* \"#utility.yul\":197:198   */\n  0x00\n    /* \"#utility.yul\":194:195   */\n  dup1\n    /* \"#utility.yul\":187:199   */\n  revert\n    /* \"#utility.yul\":334:424   */\ntag_19:\n    /* \"#utility.yul\":368:375   */\n  0x00\n    /* \"#utility.yul\":411:416   */\n  dup2\n    /* \"#utility.yul\":404:417   */\n  iszero\n    /* \"#utility.yul\":397:418   */\n  iszero\n    /* \"#utility.yul\":386:418   */\n  swap1\n  pop\n    /* \"#utility.yul\":334:424   */\n  swap2\n  swap1\n  pop\n  jump\t// out\n    /* \"#utility.yul\":430:546   */\ntag_20:\n    /* \"#utility.yul\":500:521   */\n  tag_48\n    /* \"#utility.yul\":515:520   */\n  dup2\n    /* \"#utility.yul\":500:521   */\n  tag_19\n  jump\t// in\ntag_48:\n    /* \"#utility.yul\":493:498   */\n  dup2\n    /* \"#utility.yul\":490:522   */\n  eq\n    /* \"#utility.yul\":480:540   */\n  tag_49\n  jumpi\n    /* \"#utility.yul\":536:537   */\n  0x00\n    /* \"#utility.yul\":533:534   */\n  dup1\n    /* \"#utility.yul\":526:538   */\n  revert\n    /* \"#utility.yul\":480:540   */\ntag_49:\n    /* \"#utility.yul\":430:546   */\n  pop\n  jump\t// out\n    /* \"#utility.yul\":552:689   */\ntag_21:\n    /* \"#utility.yul\":606:611   */\n  0x00\n    /* \"#utility.yul\":637:643   */\n  dup2\n    /* \"#utility.yul\":631:644   */\n  mload\n    /* \"#utility.yul\":622:644   */\n  swap1\n  pop\n    /* \"#utility.yul\":653:683   */\n  tag_51\n    /* \"#utility.yul\":677:682   */\n  dup2\n    /* \"#utility.yul\":653:683   */\n  tag_20\n  jump\t// in\ntag_51:\n    /* \"#utility.yul\":552:689   */\n  swap3\n  swap2\n  pop\n  pop\n  jump\t// out\n    /* \"#utility.yul\":695:1040   */\ntag_3:\n    /* \"#utility.yul\":762:768   */\n  0x00\n    /* \"#utility.yul\":811:813   */\n  0x20\n    /* \"#utility.yul\":799:808   */\n  dup3\n    /* \"#utility.yul\":790:797   */\n  dup5\n    /* \"#utility.yul\":786:809   */\n  sub\n    /* \"#utility.yul\":782:814   */\n  slt\n    /* \"#utility.yul\":779:898   */\n  iszero\n  tag_53\n  jumpi\n    /* \"#utility.yul\":817:896   */\n  tag_54\n  tag_17\n  jump\t// in\ntag_54:\n    /* \"#utility.yul\":779:898   */\ntag_53:\n    /* \"#utility.yul\":937:938   */\n  0x00\n    /* \"#utility.yul\":962:1023   */\n  tag_55\n    /* \"#utility.yul\":1015:1022   */\n  dup5\n    /* \"#utility.yul\":1006:1012   */\n  dup3\n    /* \"#utility.yul\":995:1004   */\n  dup6\n    /* \"#utility.yul\":991:1013   */\n  add\n    /* \"#utility.yul\":962:1023   */\n  tag_21\n  jump\t// in\ntag_55:\n    /* \"#utility.yul\":952:1023   */\n  swap2\n  pop\n    /* \"#utility.yul\":908:1033   */\n  pop\n    /* \"#utility.yul\":695:1040   */\n  swap3\n  swap2\n  pop\n  pop\n  jump\t// out\n    /* \"#utility.yul\":1046:1145   */\ntag_22:\n    /* \"#utility.yul\":1098:1104   */\n  0x00\n    /* \"#utility.yul\":1132:1137   */\n  dup2\n    /* \"#utility.yul\":1126:1138   */\n  mload\n    /* \"#utility.yul\":1116:1138   */\n  swap1\n  pop\n    /* \"#utility.yul\":1046:1145   */\n  swap2\n  swap1\n  pop\n  jump\t// out\n    /* \"#utility.yul\":1151:1331   */\ntag_23:\n    /* \"#utility.yul\":1199:1276   */\n  0x4e487b7100000000000000000000000000000000000000000000000000000000\n    /* \"#utility.yul\":1196:1197   */\n  0x00\n    /* \"#utility.yul\":1189:1277   */\n  mstore\n    /* \"#utility.yul\":1296:1300   */\n  0x41\n    /* \"#utility.yul\":1293:1294   */\n  0x04\n    /* \"#utility.yul\":1286:1301   */\n  mstore\n    /* \"#utility.yul\":1320:1324   */\n  0x24\n    /* \"#utility.yul\":1317:1318   */\n  0x00\n    /* \"#utility.yul\":1310:1325   */\n  revert\n    /* \"#utility.yul\":1337:1517   */\ntag_24:\n    /* \"#utility.yul\":1385:1462   */\n  0x4e487b7100000000000000000000000000000000000000000000000000000000\n    /* \"#utility.yul\":1382:1383   */\n  0x00\n    /* \"#utility.yul\":1375:1463   */\n  mstore\n    /* \"#utility.yul\":1482:1486   */\n  0x22\n    /* \"#utility.yul\":1479:1480   */\n  0x04\n    /* \"#utility.yul\":1472:1487   */\n  mstore\n    /* \"#utility.yul\":1506:1510   */\n  0x24\n    /* \"#utility.yul\":1503:1504   */\n  0x00\n    /* \"#utility.yul\":1496:1511   */\n  revert\n    /* \"#utility.yul\":1523:1843   */\ntag_25:\n    /* \"#utility.yul\":1567:1573   */\n  0x00\n    /* \"#utility.yul\":1604:1605   */\n  0x02\n    /* \"#utility.yul\":1598:1602   */\n  dup3\n    /* \"#utility.yul\":1594:1606   */\n  div\n    /* \"#utility.yul\":1584:1606   */\n  swap1\n  pop\n    /* \"#utility.yul\":1651:1652   */\n  0x01\n    /* \"#utility.yul\":1645:1649   */\n  dup3\n    /* \"#utility.yul\":1641:1653   */\n  and\n    /* \"#utility.yul\":1672:1690   */\n  dup1\n    /* \"#utility.yul\":1662:1743   */\n  tag_60\n  jumpi\n    /* \"#utility.yul\":1728:1732   */\n  0x7f\n    /* \"#utility.yul\":1720:1726   */\n  dup3\n    /* \"#utility.yul\":1716:1733   */\n  and\n    /* \"#utility.yul\":1706:1733   */\n  swap2\n  pop\n    /* \"#utility.yul\":1662:1743   */\ntag_60:\n    /* \"#utility.yul\":1790:1792   */\n  0x20\n    /* \"#utility.yul\":1782:1788   */\n  dup3\n    /* \"#utility.yul\":1779:1793   */\n  lt\n    /* \"#utility.yul\":1759:1777   */\n  dup2\n    /* \"#utility.yul\":1756:1794   */\n  sub\n    /* \"#utility.yul\":1753:1837   */\n  tag_61\n  jumpi\n    /* \"#utility.yul\":1809:1827   */\n  tag_62\n  tag_24\n  jump\t// in\ntag_62:\n    /* \"#utility.yul\":1753:1837   */\ntag_61:\n    /* \"#utility.yul\":1574:1843   */\n  pop\n    /* \"#utility.yul\":1523:1843   */\n  swap2\n  swap1\n  pop\n  jump\t// out\n    /* \"#utility.yul\":1849:1990   */\ntag_26:\n    /* \"#utility.yul\":1898:1902   */\n  0x00\n    /* \"#utility.yul\":1921:1924   */\n  dup2\n    /* \"#utility.yul\":1913:1924   */\n  swap1\n  pop\n    /* \"#utility.yul\":1944:1947   */\n  dup2\n    /* \"#utility.yul\":1941:1942   */\n  0x00\n    /* \"#utility.yul\":1934:1948   */\n  mstore\n    /* \"#utility.yul\":1978:1982   */\n  0x20\n    /* \"#utility.yul\":1975:1976   */\n  0x00\n    /* \"#utility.yul\":1965:1983   */\n  keccak256\n    /* \"#utility.yul\":1957:1983   */\n  swap1\n  pop\n    /* \"#utility.yul\":1849:1990   */\n  swap2\n  swap1\n  pop\n  jump\t// out\n    /* \"#utility.yul\":1996:2089   */\ntag_27:\n    /* \"#utility.yul\":2033:2039   */\n  0x00\n    /* \"#utility.yul\":2080:2082   */\n  0x20\n    /* \"#utility.yul\":2075:2077   */\n  0x1f\n    /* \"#utility.yul\":2068:2073   */\n  dup4\n    /* \"#utility.yul\":2064:2078   */\n  add\n    /* \"#utility.yul\":2060:2083   */\n  div\n    /* \"#utility.yul\":2050:2083   */\n  swap1\n  pop\n    /* \"#utility.yul\":1996:2089   */\n  swap2\n  swap1\n  pop\n  jump\t// out\n    /* \"#utility.yul\":2095:2202   */\ntag_28:\n    /* \"#utility.yul\":2139:2147   */\n  0x00\n    /* \"#utility.yul\":2189:2194   */\n  dup3\n    /* \"#utility.yul\":2183:2187   */\n  dup3\n    /* \"#utility.yul\":2179:2195   */\n  shl\n    /* \"#utility.yul\":2158:2195   */\n  swap1\n  pop\n    /* \"#utility.yul\":2095:2202   */\n  swap3\n  swap2\n  pop\n  pop\n  jump\t// out\n    /* \"#utility.yul\":2208:2601   */\ntag_29:\n    /* \"#utility.yul\":2277:2283   */\n  0x00\n    /* \"#utility.yul\":2327:2328   */\n  0x08\n    /* \"#utility.yul\":2315:2325   */\n  dup4\n    /* \"#utility.yul\":2311:2329   */\n  mul\n    /* \"#utility.yul\":2350:2447   */\n  tag_67\n    /* \"#utility.yul\":2380:2446   */\n  0xffffffffffffffffffffffffffffffffffffffffffffffffffffffffffffffff\n    /* \"#utility.yul\":2369:2378   */\n  dup3\n    /* \"#utility.yul\":2350:2447   */\n  tag_28\n  jump\t// in\ntag_67:\n    /* \"#utility.yul\":2468:2507   */\n  tag_68\n    /* \"#utility.yul\":2498:2506   */\n  dup7\n    /* \"#utility.yul\":2487:2496   */\n  dup4\n    /* \"#utility.yul\":2468:2507   */\n  tag_28\n  jump\t// in\ntag_68:\n    /* \"#utility.yul\":2456:2507   */\n  swap6\n  pop\n    /* \"#utility.yul\":2540:2544   */\n  dup1\n    /* \"#utility.yul\":2536:2545   */\n  not\n    /* \"#utility.yul\":2529:2534   */\n  dup5\n    /* \"#utility.yul\":2525:2546   */\n  and\n    /* \"#utility.yul\":2516:2546   */\n  swap4\n  pop\n    /* \"#utility.yul\":2589:2593   */\n  dup1\n    /* \"#utility.yul\":2579:2587   */\n  dup7\n    /* \"#utility.yul\":2575:2594   */\n  and\n    /* \"#utility.yul\":2568:2573   */\n  dup5\n    /* \"#utility.yul\":2565:2595   */\n  or\n    /* \"#utility.yul\":2555:2595   */\n  swap3\n  pop\n    /* \"#utility.yul\":2284:2601   */\n  pop\n  pop\n    /* \"#utility.yul\":2208:2601   */\n  swap4\n  swap3\n  pop\n  pop\n  pop\n  jump\t// out\n    /* \"#utility.yul\":2607:2684   */\ntag_30:\n    /* \"#utility.yul\":2644:2651   */\n  0x00\n    /* \"#utility.yul\":2673:2678   */\n  dup2\n    /* \"#utility.yul\":2662:2678   */\n  swap1\n  pop\n    /* \"#utility.yul\":2607:2684   */\n  swap2\n  swap1\n  pop\n  jump\t// out\n    /* \"#utility.yul\":2690:2750   */\ntag_31:\n    /* \"#utility.yul\":2718:2721   */\n  0x00\n    /* \"#utility.yul\":2739:2744   */\n  dup2\n    /* \"#utility.yul\":2732:2744   */\n  swap1\n  pop\n    /* \"#utility.yul\":2690:2750   */\n  swap2\n  swap1\n  pop\n  jump\t// out\n    /* \"#utility.yul\":2756:2898   */\ntag_32:\n    /* \"#utility.yul\":2806:2815   */\n  0x00\n    /* \"#utility.yul\":2839:2892   */\n  tag_72\n    /* \"#utility.yul\":2857:2891   */\n  tag_73\n    /* \"#utility.yul\":2866:2890   */\n  tag_74\n    /* \"#utility.yul\":2884:2889   */\n  dup5\n    /* \"#utility.yul\":2866:2890   */\n  tag_30\n  jump\t// in\ntag_74:\n    /* \"#utility.yul\":2857:2891   */\n  tag_31\n  jump\t// in\ntag_73:\n    /* \"#utility.yul\":2839:2892   */\n  tag_30\n  jump\t// in\ntag_72:\n    /* \"#utility.yul\":2826:2892   */\n  swap1\n  pop\n    /* \"#utility.yul\":2756:2898   */\n  swap2\n  swap1\n  pop\n  jump\t// out\n    /* \"#utility.yul\":2904:2979   */\ntag_33:\n    /* \"#utility.yul\":2947:2950   */\n  0x00\n    /* \"#utility.yul\":2968:2973   */\n  dup2\n    /* \"#utility.yul\":2961:2973   */\n  swap1\n  pop\n    /* \"#utility.yul\":2904:2979   */\n  swap2\n  swap1\n  pop\n  jump\t// out\n    /* \"#utility.yul\":2985:3254   */\ntag_34:\n    /* \"#utility.yul\":3095:3134   */\n  tag_77\n    /* \"#utility.yul\":3126:3133   */\n  dup4\n    /* \"#utility.yul\":3095:3134   */\n  tag_32\n  jump\t// in\ntag_77:\n    /* \"#utility.yul\":3156:3247   */\n  tag_78\n    /* \"#utility.yul\":3205:3246   */\n  tag_79\n    /* \"#utility.yul\":3229:3245   */\n  dup3\n    /* \"#utility.yul\":3205:3246   */\n  tag_33\n  jump\t// in\ntag_79:\n    /* \"#utility.yul\":3197:3203   */\n  dup5\n    /* \"#utility.yul\":3190:3194   */\n  dup5\n    /* \"#utility.yul\":3184:3195   */\n  sload\n    /* \"#utility.yul\":3156:3247   */\n  tag_29\n  jump\t// in\ntag_78:\n    /* \"#utility.yul\":3150:3154   */\n  dup3\n    /* \"#utility.yul\":3143:3248   */\n  sstore\n    /* \"#utility.yul\":3061:3254   */\n  pop\n    /* \"#utility.yul\":2985:3254   */\n  pop\n  pop\n  pop\n  jump\t// out\n    /* \"#utility.yul\":3260:3333   */\ntag_35:\n    /* \"#utility.yul\":3305:3308   */\n  0x00\n    /* \"#utility.yul\":3260:3333   */\n  swap1\n  jump\t// out\n    /* \"#utility.yul\":3339:3528   */\ntag_36:\n    /* \"#utility.yul\":3416:3448   */\n  tag_82\n  tag_35\n  jump\t// in\ntag_82:\n    /* \"#utility.yul\":3457:3522   */\n  tag_83\n    /* \"#utility.yul\":3515:3521   */\n  dup2\n    /* \"#utility.yul\":3507:3513   */\n  dup5\n    /* \"#utility.yul\":3501:3505   */\n  dup5\n    /* \"#utility.yul\":3457:3522   */\n  tag_34\n  jump\t// in\ntag_83:\n    /* \"#utility.yul\":3392:3528   */\n  pop\n    /* \"#utility.yul\":3339:3528   */\n  pop\n  pop\n  jump\t// out\n    /* \"#utility.yul\":3534:3720   */\ntag_37:\n    /* \"#utility.yul\":3594:3714   */\ntag_85:\n    /* \"#utility.yul\":3611:3614   */\n  dup2\n    /* \"#utility.yul\":3604:3609   */\n  dup2\n    /* \"#utility.yul\":3601:3615   */\n  lt\n    /* \"#utility.yul\":3594:3714   */\n  iszero\n  tag_87\n  jumpi\n    /* \"#utility.yul\":3665:3704   */\n  tag_88\n    /* \"#utility.yul\":3702:3703   */\n  0x00\n    /* \"#utility.yul\":3695:3700   */\n  dup3\n    /* \"#utility.yul\":3665:3704   */\n  tag_36\n  jump\t// in\ntag_88:\n    /* \"#utility.yul\":3638:3639   */\n  0x01\n    /* \"#utility.yul\":3631:3636   */\n  dup2\n    /* \"#utility.yul\":3627:3640   */\n  add\n    /* \"#utility.yul\":3618:3640   */\n  swap1\n  pop\n    /* \"#utility.yul\":3594:3714   */\n  jump(tag_85)\ntag_87:\n    /* \"#utility.yul\":3534:3720   */\n  pop\n  pop\n  jump\t// out\n    /* \"#utility.yul\":3726:4269   */\ntag_38:\n    /* \"#utility.yul\":3827:3829   */\n  0x1f\n    /* \"#utility.yul\":3822:3825   */\n  dup3\n    /* \"#utility.yul\":3819:3830   */\n  gt\n    /* \"#utility.yul\":3816:4262   */\n  iszero\n  tag_90\n  jumpi\n    /* \"#utility.yul\":3861:3899   */\n  tag_91\n    /* \"#utility.yul\":3893:3898   */\n  dup2\n    /* \"#utility.yul\":3861:3899   */\n  tag_26\n  jump\t// in\ntag_91:\n    /* \"#utility.yul\":3945:3974   */\n  tag_92\n    /* \"#utility.yul\":3963:3973   */\n  dup5\n    /* \"#utility.yul\":3945:3974   */\n  tag_27\n  jump\t// in\ntag_92:\n    /* \"#utility.yul\":3935:3943   */\n  dup2\n    /* \"#utility.yul\":3931:3975   */\n  add\n    /* \"#utility.yul\":4128:4130   */\n  0x20\n    /* \"#utility.yul\":4116:4126   */\n  dup6\n    /* \"#utility.yul\":4113:4131   */\n  lt\n    /* \"#utility.yul\":4110:4159   */\n  iszero\n  tag_93\n  jumpi\n    /* \"#utility.yul\":4149:4157   */\n  dup2\n    /* \"#utility.yul\":4134:4157   */\n  swap1\n  pop\n    /* \"#utility.yul\":4110:4159   */\ntag_93:\n    /* \"#utility.yul\":4172:4252   */\n  tag_94\n    /* \"#utility.yul\":4228:4250   */\n  tag_95\n    /* \"#utility.yul\":4246:4249   */\n  dup6\n    /* \"#utility.yul\":4228:4250   */\n  tag_27\n  jump\t// in\ntag_95:\n    /* \"#utility.yul\":4218:4226   */\n  dup4\n    /* \"#utility.yul\":4214:4251   */\n  add\n    /* \"#utility.yul\":4201:4212   */\n  dup3\n    /* \"#utility.yul\":4172:4252   */\n  tag_37\n  jump\t// in\ntag_94:\n    /* \"#utility.yul\":3831:4262   */\n  pop\n  pop\n    /* \"#utility.yul\":3816:4262   */\ntag_90:\n    /* \"#utility.yul\":3726:4269   */\n  pop\n  pop\n  pop\n  jump\t// out\n    /* \"#utility.yul\":4275:4392   */\ntag_39:\n    /* \"#utility.yul\":4329:4337   */\n  0x00\n    /* \"#utility.yul\":4379:4384   */\n  dup3\n    /* \"#utility.yul\":4373:4377   */\n  dup3\n    /* \"#utility.yul\":4369:4385   */\n  shr\n    /* \"#utility.yul\":4348:4385   */\n  swap1\n  pop\n    /* \"#utility.yul\":4275:4392   */\n  swap3\n  swap2\n  pop\n  pop\n  jump\t// out\n    /* \"#utility.yul\":4398:4567   */\ntag_40:\n    /* \"#utility.yul\":4442:4448   */\n  0x00\n    /* \"#utility.yul\":4475:4526   */\n  tag_98\n    /* \"#utility.yul\":4523:4524   */\n  0x00\n    /* \"#utility.yul\":4519:4525   */\n  not\n    /* \"#utility.yul\":4511:4516   */\n  dup5\n    /* \"#utility.yul\":4508:4509   */\n  0x08\n    /* \"#utility.yul\":4504:4517   */\n  mul\n    /* \"#utility.yul\":4475:4526   */\n  tag_39\n  jump\t// in\ntag_98:\n    /* \"#utility.yul\":4471:4527   */\n  not\n    /* \"#utility.yul\":4556:4560   */\n  dup1\n    /* \"#utility.yul\":4550:4554   */\n  dup4\n    /* \"#utility.yul\":4546:4561   */\n  and\n    /* \"#utility.yul\":4536:4561   */\n  swap2\n  pop\n    /* \"#utility.yul\":4449:4567   */\n  pop\n    /* \"#utility.yul\":4398:4567   */\n  swap3\n  swap2\n  pop\n  pop\n  jump\t// out\n    /* \"#utility.yul\":4572:4867   */\ntag_41:\n    /* \"#utility.yul\":4648:4652   */\n  0x00\n    /* \"#utility.yul\":4794:4823   */\n  tag_100\n    /* \"#utility.yul\":4819:4822   */\n  dup4\n    /* \"#utility.yul\":4813:4817   */\n  dup4\n    /* \"#utility.yul\":4794:4823   */\n  tag_40\n  jump\t// in\ntag_100:\n    /* \"#utility.yul\":4786:4823   */\n  swap2\n  pop\n    /* \"#utility.yul\":4856:4859   */\n  dup3\n    /* \"#utility.yul\":4853:4854   */\n  0x02\n    /* \"#utility.yul\":4849:4860   */\n  mul\n    /* \"#utility.yul\":4843:4847   */\n  dup3\n    /* \"#utility.yul\":4840:4861   */\n  or\n    /* \"#utility.yul\":4832:4861   */\n  swap1\n  pop\n    /* \"#utility.yul\":4572:4867   */\n  swap3\n  swap2\n  pop\n  pop\n  jump\t// out\n    /* \"#utility.yul\":4872:6267   */\ntag_8:\n    /* \"#utility.yul\":4989:5026   */\n  tag_102\n    /* \"#utility.yul\":5022:5025   */\n  dup3\n    /* \"#utility.yul\":4989:5026   */\n  tag_22\n  jump\t// in\ntag_102:\n    /* \"#utility.yul\":5091:5109   */\n  0xffffffffffffffff\n    /* \"#utility.yul\":5083:5089   */\n  dup2\n    /* \"#utility.yul\":5080:5110   */\n  gt\n    /* \"#utility.yul\":5077:5133   */\n  iszero\n  tag_103\n  jumpi\n    /* \"#utility.yul\":5113:5131   */\n  tag_104\n  tag_23\n  jump\t// in\ntag_104:\n    /* \"#utility.yul\":5077:5133   */\ntag_103:\n    /* \"#utility.yul\":5157:5195   */\n  tag_105\n    /* \"#utility.yul\":5189:5193   */\n  dup3\n    /* \"#utility.yul\":5183:5194   */\n  sload\n    /* \"#utility.yul\":5157:5195   */\n  tag_25\n  jump\t// in\ntag_105:\n    /* \"#utility.yul\":5242:5309   */\n  tag_106\n    /* \"#utility.yul\":5302:5308   */\n  dup3\n    /* \"#utility.yul\":5294:5300   */\n  dup3\n    /* \"#utility.yul\":5288:5292   */\n  dup6\n    /* \"#utility.yul\":5242:5309   */\n  tag_38\n  jump\t// in\ntag_106:\n    /* \"#utility.yul\":5336:5337   */\n  0x00\n    /* \"#utility.yul\":5360:5364   */\n  0x20\n    /* \"#utility.yul\":5347:5364   */\n  swap1\n  pop\n    /* \"#utility.yul\":5392:5394   */\n  0x1f\n    /* \"#utility.yul\":5384:5390   */\n  dup4\n    /* \"#utility.yul\":5381:5395   */\n  gt\n    /* \"#utility.yul\":5409:5410   */\n  0x01\n    /* \"#utility.yul\":5404:6022   */\n  dup2\n  eq\n  tag_108\n  jumpi\n    /* \"#utility.yul\":6066:6067   */\n  0x00\n    /* \"#utility.yul\":6083:6089   */\n  dup5\n    /* \"#utility.yul\":6080:6157   */\n  iszero\n  tag_109\n  jumpi\n    /* \"#utility.yul\":6132:6141   */\n  dup3\n    /* \"#utility.yul\":6127:6130   */\n  dup8\n    /* \"#utility.yul\":6123:6142   */\n  add\n    /* \"#utility.yul\":6117:6143   */\n  mload\n    /* \"#utility.yul\":6108:6143   */\n  swap1\n  pop\n    /* \"#utility.yul\":6080:6157   */\ntag_109:\n    /* \"#utility.yul\":6183:6250   */\n  tag_110\n    /* \"#utility.yul\":6243:6249   */\n  dup6\n    /* \"#utility.yul\":6236:6241   */\n  dup3\n    /* \"#utility.yul\":6183:6250   */\n  tag_41\n  jump\t// in\ntag_110:\n    /* \"#utility.yul\":6177:6181   */\n  dup7\n    /* \"#utility.yul\":6170:6251   */\n  sstore\n    /* \"#utility.yul\":6039:6261   */\n  pop\n    /* \"#utility.yul\":5374:6261   */\n  jump(tag_107)\n    /* \"#utility.yul\":5404:6022   */\ntag_108:\n    /* \"#utility.yul\":5456:5460   */\n  0x1f\n    /* \"#utility.yul\":5452:5461   */\n  not\n    /* \"#utility.yul\":5444:5450   */\n  dup5\n    /* \"#utility.yul\":5440:5462   */\n  and\n    /* \"#utility.yul\":5490:5527   */\n  tag_111\n    /* \"#utility.yul\":5522:5526   */\n  dup7\n    /* \"#utility.yul\":5490:5527   */\n  tag_26\n  jump\t// in\ntag_111:\n    /* \"#utility.yul\":5549:5550   */\n  0x00\n    /* \"#utility.yul\":5563:5771   */\ntag_112:\n    /* \"#utility.yul\":5577:5584   */\n  dup3\n    /* \"#utility.yul\":5574:5575   */\n  dup2\n    /* \"#utility.yul\":5571:5585   */\n  lt\n    /* \"#utility.yul\":5563:5771   */\n  iszero\n  tag_114\n  jumpi\n    /* \"#utility.yul\":5656:5665   */\n  dup5\n    /* \"#utility.yul\":5651:5654   */\n  dup10\n    /* \"#utility.yul\":5647:5666   */\n  add\n    /* \"#utility.yul\":5641:5667   */\n  mload\n    /* \"#utility.yul\":5633:5639   */\n  dup3\n    /* \"#utility.yul\":5626:5668   */\n  sstore\n    /* \"#utility.yul\":5707:5708   */\n  0x01\n    /* \"#utility.yul\":5699:5705   */\n  dup3\n    /* \"#utility.yul\":5695:5709   */\n  add\n    /* \"#utility.yul\":5685:5709   */\n  swap2\n  pop\n    /* \"#utility.yul\":5754:5756   */\n  0x20\n    /* \"#utility.yul\":5743:5752   */\n  dup6\n    /* \"#utility.yul\":5739:5757   */\n  add\n    /* \"#utility.yul\":5726:5757   */\n  swap5\n  pop\n    /* \"#utility.yul\":5600:5604   */\n  0x20\n    /* \"#utility.yul\":5597:5598   */\n  dup2\n    /* \"#utility.yul\":5593:5605   */\n  add\n    /* \"#utility.yul\":5588:5605   */\n  swap1\n  pop\n    /* \"#utility.yul\":5563:5771   */\n  jump(tag_112)\ntag_114:\n    /* \"#utility.yul\":5799:5805   */\n  dup7\n    /* \"#utility.yul\":5790:5797   */\n  dup4\n    /* \"#utility.yul\":5787:5806   */\n  lt\n    /* \"#utility.yul\":5784:5963   */\n  iszero\n  tag_115\n  jumpi\n    /* \"#utility.yul\":5857:5866   */\n  dup5\n    /* \"#utility.yul\":5852:5855   */\n  dup10\n    /* \"#utility.yul\":5848:5867   */\n  add\n    /* \"#utility.yul\":5842:5868   */\n  mload\n    /* \"#utility.yul\":5900:5948   */\n  tag_116\n    /* \"#utility.yul\":5942:5946   */\n  0x1f\n    /* \"#utility.yul\":5934:5940   */\n  dup10\n    /* \"#utility.yul\":5930:5947   */\n  and\n    /* \"#utility.yul\":5919:5928   */\n  dup3\n    /* \"#utility.yul\":5900:5948   */\n  tag_40\n  jump\t// in\ntag_116:\n    /* \"#utility.yul\":5892:5898   */\n  dup4\n    /* \"#utility.yul\":5885:5949   */\n  sstore\n    /* \"#utility.yul\":5807:5963   */\n  pop\n    /* \"#utility.yul\":5784:5963   */\ntag_115:\n    /* \"#utility.yul\":6009:6010   */\n  0x01\n    /* \"#utility.yul\":6005:6006   */\n  0x02\n    /* \"#utility.yul\":5997:6003   */\n  dup9\n    /* \"#utility.yul\":5993:6007   */\n  mul\n    /* \"#utility.yul\":5989:6011   */\n  add\n    /* \"#utility.yul\":5983:5987   */\n  dup9\n    /* \"#utility.yul\":5976:6012   */\n  sstore\n    /* \"#utility.yul\":5411:6022   */\n  pop\n  pop\n  pop\n    /* \"#utility.yul\":5374:6261   */\ntag_107:\n  pop\n    /* \"#utility.yul\":4964:6267   */\n  pop\n  pop\n  pop\n    /* \"#utility.yul\":4872:6267   */\n  pop\n  pop\n  jump\t// out\n    /* \"EstructurasdeControl.sol\":66:470  contract EstructuraDeControl {... */\ntag_15:\n  dataSize(sub_0)\n  dup1\n  dataOffset(sub_0)\n  0x00\n  codecopy\n  0x00\n  return\nstop\n\nsub_0: assembly {\n        /* \"EstructurasdeControl.sol\":66:470  contract EstructuraDeControl {... */\n      mstore(0x40, 0x80)\n      callvalue\n      dup1\n      iszero\n      tag_1\n      jumpi\n      0x00\n      dup1\n      revert\n    tag_1:\n      pop\n      jumpi(tag_2, lt(calldatasize, 0x04))\n      shr(0xe0, calldataload(0x00))\n      dup1\n      0x5206f100\n      eq\n      tag_3\n      jumpi\n      dup1\n      0xf2f7cca4\n      eq\n      tag_4\n      jumpi\n    tag_2:\n      0x00\n      dup1\n      revert\n        /* \"EstructurasdeControl.sol\":133:156  string public resultado */\n    tag_3:\n      tag_5\n      tag_6\n      jump\t// in\n    tag_5:\n      mload(0x40)\n      tag_7\n      swap2\n      swap1\n      tag_8\n      jump\t// in\n    tag_7:\n      mload(0x40)\n      dup1\n      swap2\n      sub\n      swap1\n      return\n        /* \"EstructurasdeControl.sol\":106:127  uint[] public numeros */\n    tag_4:\n      tag_9\n      0x04\n      dup1\n      calldatasize\n      sub\n      dup2\n      add\n      swap1\n      tag_10\n      swap2\n      swap1\n      tag_11\n      jump\t// in\n    tag_10:\n      tag_12\n      jump\t// in\n    tag_9:\n      mload(0x40)\n      tag_13\n      swap2\n      swap1\n      tag_14\n      jump\t// in\n    tag_13:\n      mload(0x40)\n      dup1\n      swap2\n      sub\n      swap1\n      return\n        /* \"EstructurasdeControl.sol\":133:156  string public resultado */\n    tag_6:\n      0x01\n      dup1\n      sload\n      tag_15\n      swap1\n      tag_16\n      jump\t// in\n    tag_15:\n      dup1\n      0x1f\n      add\n      0x20\n      dup1\n      swap2\n      div\n      mul\n      0x20\n      add\n      mload(0x40)\n      swap1\n      dup2\n      add\n      0x40\n      mstore\n      dup1\n      swap3\n      swap2\n      swap1\n      dup2\n      dup2\n      mstore\n      0x20\n      add\n      dup3\n      dup1\n      sload\n      tag_17\n      swap1\n      tag_16\n      jump\t// in\n    tag_17:\n      dup1\n      iszero\n      tag_18\n      jumpi\n      dup1\n      0x1f\n      lt\n      tag_19\n      jumpi\n      0x0100\n      dup1\n      dup4\n      sload\n      div\n      mul\n      dup4\n      mstore\n      swap2\n      0x20\n      add\n      swap2\n      jump(tag_18)\n    tag_19:\n      dup3\n      add\n      swap2\n      swap1\n      0x00\n      mstore\n      keccak256(0x00, 0x20)\n      swap1\n    tag_20:\n      dup2\n      sload\n      dup2\n      mstore\n      swap1\n      0x01\n      add\n      swap1\n      0x20\n      add\n      dup1\n      dup4\n      gt\n      tag_20\n      jumpi\n      dup3\n      swap1\n      sub\n      0x1f\n      and\n      dup3\n      add\n      swap2\n    tag_18:\n      pop\n      pop\n      pop\n      pop\n      pop\n      dup2\n      jump\t// out\n        /* \"EstructurasdeControl.sol\":106:127  uint[] public numeros */\n    tag_12:\n      0x00\n      dup2\n      dup2\n      sload\n      dup2\n      lt\n      tag_21\n      jumpi\n      0x00\n      dup1\n      revert\n    tag_21:\n      swap1\n      0x00\n      mstore\n      keccak256(0x00, 0x20)\n      add\n      0x00\n      swap2\n      pop\n      swap1\n      pop\n      sload\n      dup2\n      jump\t// out\n        /* \"#utility.yul\":7:106   */\n    tag_23:\n        /* \"#utility.yul\":59:65   */\n      0x00\n        /* \"#utility.yul\":93:98   */\n      dup2\n        /* \"#utility.yul\":87:99   */\n      mload\n        /* \"#utility.yul\":77:99   */\n      swap1\n      pop\n        /* \"#utility.yul\":7:106   */\n      swap2\n      swap1\n      pop\n      jump\t// out\n        /* \"#utility.yul\":112:281   */\n    tag_24:\n        /* \"#utility.yul\":196:207   */\n      0x00\n        /* \"#utility.yul\":230:236   */\n      dup3\n        /* \"#utility.yul\":225:228   */\n      dup3\n        /* \"#utility.yul\":218:237   */\n      mstore\n        /* \"#utility.yul\":270:274   */\n      0x20\n        /* \"#utility.yul\":265:268   */\n      dup3\n        /* \"#utility.yul\":261:275   */\n      add\n        /* \"#utility.yul\":246:275   */\n      swap1\n      pop\n        /* \"#utility.yul\":112:281   */\n      swap3\n      swap2\n      pop\n      pop\n      jump\t// out\n        /* \"#utility.yul\":287:426   */\n    tag_25:\n        /* \"#utility.yul\":376:382   */\n      dup3\n        /* \"#utility.yul\":371:374   */\n      dup2\n        /* \"#utility.yul\":366:369   */\n      dup4\n        /* \"#utility.yul\":360:383   */\n      mcopy\n        /* \"#utility.yul\":417:418   */\n      0x00\n        /* \"#utility.yul\":408:414   */\n      dup4\n        /* \"#utility.yul\":403:406   */\n      dup4\n        /* \"#utility.yul\":399:415   */\n      add\n        /* \"#utility.yul\":392:419   */\n      mstore\n        /* \"#utility.yul\":287:426   */\n      pop\n      pop\n      pop\n      jump\t// out\n        /* \"#utility.yul\":432:534   */\n    tag_26:\n        /* \"#utility.yul\":473:479   */\n      0x00\n        /* \"#utility.yul\":524:526   */\n      0x1f\n        /* \"#utility.yul\":520:527   */\n      not\n        /* \"#utility.yul\":515:517   */\n      0x1f\n        /* \"#utility.yul\":508:513   */\n      dup4\n        /* \"#utility.yul\":504:518   */\n      add\n        /* \"#utility.yul\":500:528   */\n      and\n        /* \"#utility.yul\":490:528   */\n      swap1\n      pop\n        /* \"#utility.yul\":432:534   */\n      swap2\n      swap1\n      pop\n      jump\t// out\n        /* \"#utility.yul\":540:917   */\n    tag_27:\n        /* \"#utility.yul\":628:631   */\n      0x00\n        /* \"#utility.yul\":656:695   */\n      tag_42\n        /* \"#utility.yul\":689:694   */\n      dup3\n        /* \"#utility.yul\":656:695   */\n      tag_23\n      jump\t// in\n    tag_42:\n        /* \"#utility.yul\":711:782   */\n      tag_43\n        /* \"#utility.yul\":775:781   */\n      dup2\n        /* \"#utility.yul\":770:773   */\n      dup6\n        /* \"#utility.yul\":711:782   */\n      tag_24\n      jump\t// in\n    tag_43:\n        /* \"#utility.yul\":704:782   */\n      swap4\n      pop\n        /* \"#utility.yul\":791:856   */\n      tag_44\n        /* \"#utility.yul\":849:855   */\n      dup2\n        /* \"#utility.yul\":844:847   */\n      dup6\n        /* \"#utility.yul\":837:841   */\n      0x20\n        /* \"#utility.yul\":830:835   */\n      dup7\n        /* \"#utility.yul\":826:842   */\n      add\n        /* \"#utility.yul\":791:856   */\n      tag_25\n      jump\t// in\n    tag_44:\n        /* \"#utility.yul\":881:910   */\n      tag_45\n        /* \"#utility.yul\":903:909   */\n      dup2\n        /* \"#utility.yul\":881:910   */\n      tag_26\n      jump\t// in\n    tag_45:\n        /* \"#utility.yul\":876:879   */\n      dup5\n        /* \"#utility.yul\":872:911   */\n      add\n        /* \"#utility.yul\":865:911   */\n      swap2\n      pop\n        /* \"#utility.yul\":632:917   */\n      pop\n        /* \"#utility.yul\":540:917   */\n      swap3\n      swap2\n      pop\n      pop\n      jump\t// out\n        /* \"#utility.yul\":923:1236   */\n    tag_8:\n        /* \"#utility.yul\":1036:1040   */\n      0x00\n        /* \"#utility.yul\":1074:1076   */\n      0x20\n        /* \"#utility.yul\":1063:1072   */\n      dup3\n        /* \"#utility.yul\":1059:1077   */\n      add\n        /* \"#utility.yul\":1051:1077   */\n      swap1\n      pop\n        /* \"#utility.yul\":1123:1132   */\n      dup2\n        /* \"#utility.yul\":1117:1121   */\n      dup2\n        /* \"#utility.yul\":1113:1133   */\n      sub\n        /* \"#utility.yul\":1109:1110   */\n      0x00\n        /* \"#utility.yul\":1098:1107   */\n      dup4\n        /* \"#utility.yul\":1094:1111   */\n      add\n        /* \"#utility.yul\":1087:1134   */\n      mstore\n        /* \"#utility.yul\":1151:1229   */\n      tag_47\n        /* \"#utility.yul\":1224:1228   */\n      dup2\n        /* \"#utility.yul\":1215:1221   */\n      dup5\n        /* \"#utility.yul\":1151:1229   */\n      tag_27\n      jump\t// in\n    tag_47:\n        /* \"#utility.yul\":1143:1229   */\n      swap1\n      pop\n        /* \"#utility.yul\":923:1236   */\n      swap3\n      swap2\n      pop\n      pop\n      jump\t// out\n        /* \"#utility.yul\":1323:1440   */\n    tag_29:\n        /* \"#utility.yul\":1432:1433   */\n      0x00\n        /* \"#utility.yul\":1429:1430   */\n      dup1\n        /* \"#utility.yul\":1422:1434   */\n      revert\n        /* \"#utility.yul\":1569:1646   */\n    tag_31:\n        /* \"#utility.yul\":1606:1613   */\n      0x00\n        /* \"#utility.yul\":1635:1640   */\n      dup2\n        /* \"#utility.yul\":1624:1640   */\n      swap1\n      pop\n        /* \"#utility.yul\":1569:1646   */\n      swap2\n      swap1\n      pop\n      jump\t// out\n        /* \"#utility.yul\":1652:1774   */\n    tag_32:\n        /* \"#utility.yul\":1725:1749   */\n      tag_53\n        /* \"#utility.yul\":1743:1748   */\n      dup2\n        /* \"#utility.yul\":1725:1749   */\n      tag_31\n      jump\t// in\n    tag_53:\n        /* \"#utility.yul\":1718:1723   */\n      dup2\n        /* \"#utility.yul\":1715:1750   */\n      eq\n        /* \"#utility.yul\":1705:1768   */\n      tag_54\n      jumpi\n        /* \"#utility.yul\":1764:1765   */\n      0x00\n        /* \"#utility.yul\":1761:1762   */\n      dup1\n        /* \"#utility.yul\":1754:1766   */\n      revert\n        /* \"#utility.yul\":1705:1768   */\n    tag_54:\n        /* \"#utility.yul\":1652:1774   */\n      pop\n      jump\t// out\n        /* \"#utility.yul\":1780:1919   */\n    tag_33:\n        /* \"#utility.yul\":1826:1831   */\n      0x00\n        /* \"#utility.yul\":1864:1870   */\n      dup2\n        /* \"#utility.yul\":1851:1871   */\n      calldataload\n        /* \"#utility.yul\":1842:1871   */\n      swap1\n      pop\n        /* \"#utility.yul\":1880:1913   */\n      tag_56\n        /* \"#utility.yul\":1907:1912   */\n      dup2\n        /* \"#utility.yul\":1880:1913   */\n      tag_32\n      jump\t// in\n    tag_56:\n        /* \"#utility.yul\":1780:1919   */\n      swap3\n      swap2\n      pop\n      pop\n      jump\t// out\n        /* \"#utility.yul\":1925:2254   */\n    tag_11:\n        /* \"#utility.yul\":1984:1990   */\n      0x00\n        /* \"#utility.yul\":2033:2035   */\n      0x20\n        /* \"#utility.yul\":2021:2030   */\n      dup3\n        /* \"#utility.yul\":2012:2019   */\n      dup5\n        /* \"#utility.yul\":2008:2031   */\n      sub\n        /* \"#utility.yul\":2004:2036   */\n      slt\n        /* \"#utility.yul\":2001:2120   */\n      iszero\n      tag_58\n      jumpi\n        /* \"#utility.yul\":2039:2118   */\n      tag_59\n      tag_29\n      jump\t// in\n    tag_59:\n        /* \"#utility.yul\":2001:2120   */\n    tag_58:\n        /* \"#utility.yul\":2159:2160   */\n      0x00\n        /* \"#utility.yul\":2184:2237   */\n      tag_60\n        /* \"#utility.yul\":2229:2236   */\n      dup5\n        /* \"#utility.yul\":2220:2226   */\n      dup3\n        /* \"#utility.yul\":2209:2218   */\n      dup6\n        /* \"#utility.yul\":2205:2227   */\n      add\n        /* \"#utility.yul\":2184:2237   */\n      tag_33\n      jump\t// in\n    tag_60:\n        /* \"#utility.yul\":2174:2237   */\n      swap2\n      pop\n        /* \"#utility.yul\":2130:2247   */\n      pop\n        /* \"#utility.yul\":1925:2254   */\n      swap3\n      swap2\n      pop\n      pop\n      jump\t// out\n        /* \"#utility.yul\":2260:2378   */\n    tag_34:\n        /* \"#utility.yul\":2347:2371   */\n      tag_62\n        /* \"#utility.yul\":2365:2370   */\n      dup2\n        /* \"#utility.yul\":2347:2371   */\n      tag_31\n      jump\t// in\n    tag_62:\n        /* \"#utility.yul\":2342:2345   */\n      dup3\n        /* \"#utility.yul\":2335:2372   */\n      mstore\n        /* \"#utility.yul\":2260:2378   */\n      pop\n      pop\n      jump\t// out\n        /* \"#utility.yul\":2384:2606   */\n    tag_14:\n        /* \"#utility.yul\":2477:2481   */\n      0x00\n        /* \"#utility.yul\":2515:2517   */\n      0x20\n        /* \"#utility.yul\":2504:2513   */\n      dup3\n        /* \"#utility.yul\":2500:2518   */\n      add\n        /* \"#utility.yul\":2492:2518   */\n      swap1\n      pop\n        /* \"#utility.yul\":2528:2599   */\n      tag_64\n        /* \"#utility.yul\":2596:2597   */\n      0x00\n        /* \"#utility.yul\":2585:2594   */\n      dup4\n        /* \"#utility.yul\":2581:2598   */\n      add\n        /* \"#utility.yul\":2572:2578   */\n      dup5\n        /* \"#utility.yul\":2528:2599   */\n      tag_34\n      jump\t// in\n    tag_64:\n        /* \"#utility.yul\":2384:2606   */\n      swap3\n      swap2\n      pop\n      pop\n      jump\t// out\n        /* \"#utility.yul\":2612:2792   */\n    tag_35:\n        /* \"#utility.yul\":2660:2737   */\n      0x4e487b7100000000000000000000000000000000000000000000000000000000\n        /* \"#utility.yul\":2657:2658   */\n      0x00\n        /* \"#utility.yul\":2650:2738   */\n      mstore\n        /* \"#utility.yul\":2757:2761   */\n      0x22\n        /* \"#utility.yul\":2754:2755   */\n      0x04\n        /* \"#utility.yul\":2747:2762   */\n      mstore\n        /* \"#utility.yul\":2781:2785   */\n      0x24\n        /* \"#utility.yul\":2778:2779   */\n      0x00\n        /* \"#utility.yul\":2771:2786   */\n      revert\n        /* \"#utility.yul\":2798:3118   */\n    tag_16:\n        /* \"#utility.yul\":2842:2848   */\n      0x00\n        /* \"#utility.yul\":2879:2880   */\n      0x02\n        /* \"#utility.yul\":2873:2877   */\n      dup3\n        /* \"#utility.yul\":2869:2881   */\n      div\n        /* \"#utility.yul\":2859:2881   */\n      swap1\n      pop\n        /* \"#utility.yul\":2926:2927   */\n      0x01\n        /* \"#utility.yul\":2920:2924   */\n      dup3\n        /* \"#utility.yul\":2916:2928   */\n      and\n        /* \"#utility.yul\":2947:2965   */\n      dup1\n        /* \"#utility.yul\":2937:3018   */\n      tag_67\n      jumpi\n        /* \"#utility.yul\":3003:3007   */\n      0x7f\n        /* \"#utility.yul\":2995:3001   */\n      dup3\n        /* \"#utility.yul\":2991:3008   */\n      and\n        /* \"#utility.yul\":2981:3008   */\n      swap2\n      pop\n        /* \"#utility.yul\":2937:3018   */\n    tag_67:\n        /* \"#utility.yul\":3065:3067   */\n      0x20\n        /* \"#utility.yul\":3057:3063   */\n      dup3\n        /* \"#utility.yul\":3054:3068   */\n      lt\n        /* \"#utility.yul\":3034:3052   */\n      dup2\n        /* \"#utility.yul\":3031:3069   */\n      sub\n        /* \"#utility.yul\":3028:3112   */\n      tag_68\n      jumpi\n        /* \"#utility.yul\":3084:3102   */\n      tag_69\n      tag_35\n      jump\t// in\n    tag_69:\n        /* \"#utility.yul\":3028:3112   */\n    tag_68:\n        /* \"#utility.yul\":2849:3118   */\n      pop\n        /* \"#utility.yul\":2798:3118   */\n      swap2\n      swap1\n      pop\n      jump\t// out\n\n    auxdata: 0xa26469706673582212201afb2eef2b727b5bd367c517ea048dca2361e6cd11be84565af507b94fbf8c0e64736f6c634300081a0033\n}\n",
				"bytecode": {
					"linkReferences": {},
					"object": "608060405234801561000f575f80fd5b5060405161076338038061076383398181016040528101906100319190610144565b8015610081576040518060400160405280600e81526020017f436f6e646963696f6e20547275650000000000000000000000000000000000008152506001908161007b91906103a9565b506100c7565b6040518060400160405280600f81526020017f436f6e646963696f6e2046616c73650000000000000000000000000000000000815250600190816100c591906103a9565b505b5f5b600a811015610104575f81908060018154018082558091505060019003905f5260205f20015f909190919091505580806001019150506100c9565b5050610478565b5f80fd5b5f8115159050919050565b6101238161010f565b811461012d575f80fd5b50565b5f8151905061013e8161011a565b92915050565b5f602082840312156101595761015861010b565b5b5f61016684828501610130565b91505092915050565b5f81519050919050565b7f4e487b71000000000000000000000000000000000000000000000000000000005f52604160045260245ffd5b7f4e487b71000000000000000000000000000000000000000000000000000000005f52602260045260245ffd5b5f60028204905060018216806101ea57607f821691505b6020821081036101fd576101fc6101a6565b5b50919050565b5f819050815f5260205f209050919050565b5f6020601f8301049050919050565b5f82821b905092915050565b5f6008830261025f7fffffffffffffffffffffffffffffffffffffffffffffffffffffffffffffffff82610224565b6102698683610224565b95508019841693508086168417925050509392505050565b5f819050919050565b5f819050919050565b5f6102ad6102a86102a384610281565b61028a565b610281565b9050919050565b5f819050919050565b6102c683610293565b6102da6102d2826102b4565b848454610230565b825550505050565b5f90565b6102ee6102e2565b6102f98184846102bd565b505050565b5b8181101561031c576103115f826102e6565b6001810190506102ff565b5050565b601f8211156103615761033281610203565b61033b84610215565b8101602085101561034a578190505b61035e61035685610215565b8301826102fe565b50505b505050565b5f82821c905092915050565b5f6103815f1984600802610366565b1980831691505092915050565b5f6103998383610372565b9150826002028217905092915050565b6103b28261016f565b67ffffffffffffffff8111156103cb576103ca610179565b5b6103d582546101d3565b6103e0828285610320565b5f60209050601f831160018114610411575f84156103ff578287015190505b610409858261038e565b865550610470565b601f19841661041f86610203565b5f5b8281101561044657848901518255600182019150602085019450602081019050610421565b86831015610463578489015161045f601f891682610372565b8355505b6001600288020188555050505b505050505050565b6102de806104855f395ff3fe608060405234801561000f575f80fd5b5060043610610034575f3560e01c80635206f10014610038578063f2f7cca414610056575b5f80fd5b610040610086565b60405161004d91906101a1565b60405180910390f35b610070600480360381019061006b91906101f8565b610112565b60405161007d9190610232565b60405180910390f35b6001805461009390610278565b80601f01602080910402602001604051908101604052809291908181526020018280546100bf90610278565b801561010a5780601f106100e15761010080835404028352916020019161010a565b820191905f5260205f20905b8154815290600101906020018083116100ed57829003601f168201915b505050505081565b5f8181548110610120575f80fd5b905f5260205f20015f915090505481565b5f81519050919050565b5f82825260208201905092915050565b8281835e5f83830152505050565b5f601f19601f8301169050919050565b5f61017382610131565b61017d818561013b565b935061018d81856020860161014b565b61019681610159565b840191505092915050565b5f6020820190508181035f8301526101b98184610169565b905092915050565b5f80fd5b5f819050919050565b6101d7816101c5565b81146101e1575f80fd5b50565b5f813590506101f2816101ce565b92915050565b5f6020828403121561020d5761020c6101c1565b5b5f61021a848285016101e4565b91505092915050565b61022c816101c5565b82525050565b5f6020820190506102455f830184610223565b92915050565b7f4e487b71000000000000000000000000000000000000000000000000000000005f52602260045260245ffd5b5f600282049050600182168061028f57607f821691505b6020821081036102a2576102a161024b565b5b5091905056fea26469706673582212201afb2eef2b727b5bd367c517ea048dca2361e6cd11be84565af507b94fbf8c0e64736f6c634300081a0033",
					"opcodes": "PUSH1 0x80 PUSH1 0x40 MSTORE CALLVALUE DUP1 ISZERO PUSH2 0xF JUMPI PUSH0 DUP1 REVERT JUMPDEST POP PUSH1 0x40 MLOAD PUSH2 0x763 CODESIZE SUB DUP1 PUSH2 0x763 DUP4 CODECOPY DUP2 DUP2 ADD PUSH1 0x40 MSTORE DUP2 ADD SWAP1 PUSH2 0x31 SWAP2 SWAP1 PUSH2 0x144 JUMP JUMPDEST DUP1 ISZERO PUSH2 0x81 JUMPI PUSH1 0x40 MLOAD DUP1 PUSH1 0x40 ADD PUSH1 0x40 MSTORE DUP1 PUSH1 0xE DUP2 MSTORE PUSH1 0x20 ADD PUSH32 0x436F6E646963696F6E2054727565000000000000000000000000000000000000 DUP2 MSTORE POP PUSH1 0x1 SWAP1 DUP2 PUSH2 0x7B SWAP2 SWAP1 PUSH2 0x3A9 JUMP JUMPDEST POP PUSH2 0xC7 JUMP JUMPDEST PUSH1 0x40 MLOAD DUP1 PUSH1 0x40 ADD PUSH1 0x40 MSTORE DUP1 PUSH1 0xF DUP2 MSTORE PUSH1 0x20 ADD PUSH32 0x436F6E646963696F6E2046616C73650000000000000000000000000000000000 DUP2 MSTORE POP PUSH1 0x1 SWAP1 DUP2 PUSH2 0xC5 SWAP2 SWAP1 PUSH2 0x3A9 JUMP JUMPDEST POP JUMPDEST PUSH0 JUMPDEST PUSH1 0xA DUP2 LT ISZERO PUSH2 0x104 JUMPI PUSH0 DUP2 SWAP1 DUP1 PUSH1 0x1 DUP2 SLOAD ADD DUP1 DUP3 SSTORE DUP1 SWAP2 POP POP PUSH1 0x1 SWAP1 SUB SWAP1 PUSH0 MSTORE PUSH1 0x20 PUSH0 KECCAK256 ADD PUSH0 SWAP1 SWAP2 SWAP1 SWAP2 SWAP1 SWAP2 POP SSTORE DUP1 DUP1 PUSH1 0x1 ADD SWAP2 POP POP PUSH2 0xC9 JUMP JUMPDEST POP POP PUSH2 0x478 JUMP JUMPDEST PUSH0 DUP1 REVERT JUMPDEST PUSH0 DUP2 ISZERO ISZERO SWAP1 POP SWAP2 SWAP1 POP JUMP JUMPDEST PUSH2 0x123 DUP2 PUSH2 0x10F JUMP JUMPDEST DUP2 EQ PUSH2 0x12D JUMPI PUSH0 DUP1 REVERT JUMPDEST POP JUMP JUMPDEST PUSH0 DUP2 MLOAD SWAP1 POP PUSH2 0x13E DUP2 PUSH2 0x11A JUMP JUMPDEST SWAP3 SWAP2 POP POP JUMP JUMPDEST PUSH0 PUSH1 0x20 DUP3 DUP5 SUB SLT ISZERO PUSH2 0x159 JUMPI PUSH2 0x158 PUSH2 0x10B JUMP JUMPDEST JUMPDEST PUSH0 PUSH2 0x166 DUP5 DUP3 DUP6 ADD PUSH2 0x130 JUMP JUMPDEST SWAP2 POP POP SWAP3 SWAP2 POP POP JUMP JUMPDEST PUSH0 DUP2 MLOAD SWAP1 POP SWAP2 SWAP1 POP JUMP JUMPDEST PUSH32 0x4E487B7100000000000000000000000000000000000000000000000000000000 PUSH0 MSTORE PUSH1 0x41 PUSH1 0x4 MSTORE PUSH1 0x24 PUSH0 REVERT JUMPDEST PUSH32 0x4E487B7100000000000000000000000000000000000000000000000000000000 PUSH0 MSTORE PUSH1 0x22 PUSH1 0x4 MSTORE PUSH1 0x24 PUSH0 REVERT JUMPDEST PUSH0 PUSH1 0x2 DUP3 DIV SWAP1 POP PUSH1 0x1 DUP3 AND DUP1 PUSH2 0x1EA JUMPI PUSH1 0x7F DUP3 AND SWAP2 POP JUMPDEST PUSH1 0x20 DUP3 LT DUP2 SUB PUSH2 0x1FD JUMPI PUSH2 0x1FC PUSH2 0x1A6 JUMP JUMPDEST JUMPDEST POP SWAP2 SWAP1 POP JUMP JUMPDEST PUSH0 DUP2 SWAP1 POP DUP2 PUSH0 MSTORE PUSH1 0x20 PUSH0 KECCAK256 SWAP1 POP SWAP2 SWAP1 POP JUMP JUMPDEST PUSH0 PUSH1 0x20 PUSH1 0x1F DUP4 ADD DIV SWAP1 POP SWAP2 SWAP1 POP JUMP JUMPDEST PUSH0 DUP3 DUP3 SHL SWAP1 POP SWAP3 SWAP2 POP POP JUMP JUMPDEST PUSH0 PUSH1 0x8 DUP4 MUL PUSH2 0x25F PUSH32 0xFFFFFFFFFFFFFFFFFFFFFFFFFFFFFFFFFFFFFFFFFFFFFFFFFFFFFFFFFFFFFFFF DUP3 PUSH2 0x224 JUMP JUMPDEST PUSH2 0x269 DUP7 DUP4 PUSH2 0x224 JUMP JUMPDEST SWAP6 POP DUP1 NOT DUP5 AND SWAP4 POP DUP1 DUP7 AND DUP5 OR SWAP3 POP POP POP SWAP4 SWAP3 POP POP POP JUMP JUMPDEST PUSH0 DUP2 SWAP1 POP SWAP2 SWAP1 POP JUMP JUMPDEST PUSH0 DUP2 SWAP1 POP SWAP2 SWAP1 POP JUMP JUMPDEST PUSH0 PUSH2 0x2AD PUSH2 0x2A8 PUSH2 0x2A3 DUP5 PUSH2 0x281 JUMP JUMPDEST PUSH2 0x28A JUMP JUMPDEST PUSH2 0x281 JUMP JUMPDEST SWAP1 POP SWAP2 SWAP1 POP JUMP JUMPDEST PUSH0 DUP2 SWAP1 POP SWAP2 SWAP1 POP JUMP JUMPDEST PUSH2 0x2C6 DUP4 PUSH2 0x293 JUMP JUMPDEST PUSH2 0x2DA PUSH2 0x2D2 DUP3 PUSH2 0x2B4 JUMP JUMPDEST DUP5 DUP5 SLOAD PUSH2 0x230 JUMP JUMPDEST DUP3 SSTORE POP POP POP POP JUMP JUMPDEST PUSH0 SWAP1 JUMP JUMPDEST PUSH2 0x2EE PUSH2 0x2E2 JUMP JUMPDEST PUSH2 0x2F9 DUP2 DUP5 DUP5 PUSH2 0x2BD JUMP JUMPDEST POP POP POP JUMP JUMPDEST JUMPDEST DUP2 DUP2 LT ISZERO PUSH2 0x31C JUMPI PUSH2 0x311 PUSH0 DUP3 PUSH2 0x2E6 JUMP JUMPDEST PUSH1 0x1 DUP2 ADD SWAP1 POP PUSH2 0x2FF JUMP JUMPDEST POP POP JUMP JUMPDEST PUSH1 0x1F DUP3 GT ISZERO PUSH2 0x361 JUMPI PUSH2 0x332 DUP2 PUSH2 0x203 JUMP JUMPDEST PUSH2 0x33B DUP5 PUSH2 0x215 JUMP JUMPDEST DUP2 ADD PUSH1 0x20 DUP6 LT ISZERO PUSH2 0x34A JUMPI DUP2 SWAP1 POP JUMPDEST PUSH2 0x35E PUSH2 0x356 DUP6 PUSH2 0x215 JUMP JUMPDEST DUP4 ADD DUP3 PUSH2 0x2FE JUMP JUMPDEST POP POP JUMPDEST POP POP POP JUMP JUMPDEST PUSH0 DUP3 DUP3 SHR SWAP1 POP SWAP3 SWAP2 POP POP JUMP JUMPDEST PUSH0 PUSH2 0x381 PUSH0 NOT DUP5 PUSH1 0x8 MUL PUSH2 0x366 JUMP JUMPDEST NOT DUP1 DUP4 AND SWAP2 POP POP SWAP3 SWAP2 POP POP JUMP JUMPDEST PUSH0 PUSH2 0x399 DUP4 DUP4 PUSH2 0x372 JUMP JUMPDEST SWAP2 POP DUP3 PUSH1 0x2 MUL DUP3 OR SWAP1 POP SWAP3 SWAP2 POP POP JUMP JUMPDEST PUSH2 0x3B2 DUP3 PUSH2 0x16F JUMP JUMPDEST PUSH8 0xFFFFFFFFFFFFFFFF DUP2 GT ISZERO PUSH2 0x3CB JUMPI PUSH2 0x3CA PUSH2 0x179 JUMP JUMPDEST JUMPDEST PUSH2 0x3D5 DUP3 SLOAD PUSH2 0x1D3 JUMP JUMPDEST PUSH2 0x3E0 DUP3 DUP3 DUP6 PUSH2 0x320 JUMP JUMPDEST PUSH0 PUSH1 0x20 SWAP1 POP PUSH1 0x1F DUP4 GT PUSH1 0x1 DUP2 EQ PUSH2 0x411 JUMPI PUSH0 DUP5 ISZERO PUSH2 0x3FF JUMPI DUP3 DUP8 ADD MLOAD SWAP1 POP JUMPDEST PUSH2 0x409 DUP6 DUP3 PUSH2 0x38E JUMP JUMPDEST DUP7 SSTORE POP PUSH2 0x470 JUMP JUMPDEST PUSH1 0x1F NOT DUP5 AND PUSH2 0x41F DUP7 PUSH2 0x203 JUMP JUMPDEST PUSH0 JUMPDEST DUP3 DUP2 LT ISZERO PUSH2 0x446 JUMPI DUP5 DUP10 ADD MLOAD DUP3 SSTORE PUSH1 0x1 DUP3 ADD SWAP2 POP PUSH1 0x20 DUP6 ADD SWAP5 POP PUSH1 0x20 DUP2 ADD SWAP1 POP PUSH2 0x421 JUMP JUMPDEST DUP7 DUP4 LT ISZERO PUSH2 0x463 JUMPI DUP5 DUP10 ADD MLOAD PUSH2 0x45F PUSH1 0x1F DUP10 AND DUP3 PUSH2 0x372 JUMP JUMPDEST DUP4 SSTORE POP JUMPDEST PUSH1 0x1 PUSH1 0x2 DUP9 MUL ADD DUP9 SSTORE POP POP POP JUMPDEST POP POP POP POP POP POP JUMP JUMPDEST PUSH2 0x2DE DUP1 PUSH2 0x485 PUSH0 CODECOPY PUSH0 RETURN INVALID PUSH1 0x80 PUSH1 0x40 MSTORE CALLVALUE DUP1 ISZERO PUSH2 0xF JUMPI PUSH0 DUP1 REVERT JUMPDEST POP PUSH1 0x4 CALLDATASIZE LT PUSH2 0x34 JUMPI PUSH0 CALLDATALOAD PUSH1 0xE0 SHR DUP1 PUSH4 0x5206F100 EQ PUSH2 0x38 JUMPI DUP1 PUSH4 0xF2F7CCA4 EQ PUSH2 0x56 JUMPI JUMPDEST PUSH0 DUP1 REVERT JUMPDEST PUSH2 0x40 PUSH2 0x86 JUMP JUMPDEST PUSH1 0x40 MLOAD PUSH2 0x4D SWAP2 SWAP1 PUSH2 0x1A1 JUMP JUMPDEST PUSH1 0x40 MLOAD DUP1 SWAP2 SUB SWAP1 RETURN JUMPDEST PUSH2 0x70 PUSH1 0x4 DUP1 CALLDATASIZE SUB DUP2 ADD SWAP1 PUSH2 0x6B SWAP2 SWAP1 PUSH2 0x1F8 JUMP JUMPDEST PUSH2 0x112 JUMP JUMPDEST PUSH1 0x40 MLOAD PUSH2 0x7D SWAP2 SWAP1 PUSH2 0x232 JUMP JUMPDEST PUSH1 0x40 MLOAD DUP1 SWAP2 SUB SWAP1 RETURN JUMPDEST PUSH1 0x1 DUP1 SLOAD PUSH2 0x93 SWAP1 PUSH2 0x278 JUMP JUMPDEST DUP1 PUSH1 0x1F ADD PUSH1 0x20 DUP1 SWAP2 DIV MUL PUSH1 0x20 ADD PUSH1 0x40 MLOAD SWAP1 DUP2 ADD PUSH1 0x40 MSTORE DUP1 SWAP3 SWAP2 SWAP1 DUP2 DUP2 MSTORE PUSH1 0x20 ADD DUP3 DUP1 SLOAD PUSH2 0xBF SWAP1 PUSH2 0x278 JUMP JUMPDEST DUP1 ISZERO PUSH2 0x10A JUMPI DUP1 PUSH1 0x1F LT PUSH2 0xE1 JUMPI PUSH2 0x100 DUP1 DUP4 SLOAD DIV MUL DUP4 MSTORE SWAP2 PUSH1 0x20 ADD SWAP2 PUSH2 0x10A JUMP JUMPDEST DUP3 ADD SWAP2 SWAP1 PUSH0 MSTORE PUSH1 0x20 PUSH0 KECCAK256 SWAP1 JUMPDEST DUP2 SLOAD DUP2 MSTORE SWAP1 PUSH1 0x1 ADD SWAP1 PUSH1 0x20 ADD DUP1 DUP4 GT PUSH2 0xED JUMPI DUP3 SWAP1 SUB PUSH1 0x1F AND DUP3 ADD SWAP2 JUMPDEST POP POP POP POP POP DUP2 JUMP JUMPDEST PUSH0 DUP2 DUP2 SLOAD DUP2 LT PUSH2 0x120 JUMPI PUSH0 DUP1 REVERT JUMPDEST SWAP1 PUSH0 MSTORE PUSH1 0x20 PUSH0 KECCAK256 ADD PUSH0 SWAP2 POP SWAP1 POP SLOAD DUP2 JUMP JUMPDEST PUSH0 DUP2 MLOAD SWAP1 POP SWAP2 SWAP1 POP JUMP JUMPDEST PUSH0 DUP3 DUP3 MSTORE PUSH1 0x20 DUP3 ADD SWAP1 POP SWAP3 SWAP2 POP POP JUMP JUMPDEST DUP3 DUP2 DUP4 MCOPY PUSH0 DUP4 DUP4 ADD MSTORE POP POP POP JUMP JUMPDEST PUSH0 PUSH1 0x1F NOT PUSH1 0x1F DUP4 ADD AND SWAP1 POP SWAP2 SWAP1 POP JUMP JUMPDEST PUSH0 PUSH2 0x173 DUP3 PUSH2 0x131 JUMP JUMPDEST PUSH2 0x17D DUP2 DUP6 PUSH2 0x13B JUMP JUMPDEST SWAP4 POP PUSH2 0x18D DUP2 DUP6 PUSH1 0x20 DUP7 ADD PUSH2 0x14B JUMP JUMPDEST PUSH2 0x196 DUP2 PUSH2 0x159 JUMP JUMPDEST DUP5 ADD SWAP2 POP POP SWAP3 SWAP2 POP POP JUMP JUMPDEST PUSH0 PUSH1 0x20 DUP3 ADD SWAP1 POP DUP2 DUP2 SUB PUSH0 DUP4 ADD MSTORE PUSH2 0x1B9 DUP2 DUP5 PUSH2 0x169 JUMP JUMPDEST SWAP1 POP SWAP3 SWAP2 POP POP JUMP JUMPDEST PUSH0 DUP1 REVERT JUMPDEST PUSH0 DUP2 SWAP1 POP SWAP2 SWAP1 POP JUMP JUMPDEST PUSH2 0x1D7 DUP2 PUSH2 0x1C5 JUMP JUMPDEST DUP2 EQ PUSH2 0x1E1 JUMPI PUSH0 DUP1 REVERT JUMPDEST POP JUMP JUMPDEST PUSH0 DUP2 CALLDATALOAD SWAP1 POP PUSH2 0x1F2 DUP2 PUSH2 0x1CE JUMP JUMPDEST SWAP3 SWAP2 POP POP JUMP JUMPDEST PUSH0 PUSH1 0x20 DUP3 DUP5 SUB SLT ISZERO PUSH2 0x20D JUMPI PUSH2 0x20C PUSH2 0x1C1 JUMP JUMPDEST JUMPDEST PUSH0 PUSH2 0x21A DUP5 DUP3 DUP6 ADD PUSH2 0x1E4 JUMP JUMPDEST SWAP2 POP POP SWAP3 SWAP2 POP POP JUMP JUMPDEST PUSH2 0x22C DUP2 PUSH2 0x1C5 JUMP JUMPDEST DUP3 MSTORE POP POP JUMP JUMPDEST PUSH0 PUSH1 0x20 DUP3 ADD SWAP1 POP PUSH2 0x245 PUSH0 DUP4 ADD DUP5 PUSH2 0x223 JUMP JUMPDEST SWAP3 SWAP2 POP POP JUMP JUMPDEST PUSH32 0x4E487B7100000000000000000000000000000000000000000000000000000000 PUSH0 MSTORE PUSH1 0x22 PUSH1 0x4 MSTORE PUSH1 0x24 PUSH0 REVERT JUMPDEST PUSH0 PUSH1 0x2 DUP3 DIV SWAP1 POP PUSH1 0x1 DUP3 AND DUP1 PUSH2 0x28F JUMPI PUSH1 0x7F DUP3 AND SWAP2 POP JUMPDEST PUSH1 0x20 DUP3 LT DUP2 SUB PUSH2 0x2A2 JUMPI PUSH2 0x2A1 PUSH2 0x24B JUMP JUMPDEST JUMPDEST POP SWAP2 SWAP1 POP JUMP INVALID LOG2 PUSH5 0x6970667358 0x22 SLT KECCAK256 BYTE 0xFB 0x2E 0xEF 0x2B PUSH19 0x7B5BD367C517EA048DCA2361E6CD11BE84565A CREATE2 SMOD 0xB9 0x4F 0xBF DUP13 0xE PUSH5 0x736F6C6343 STOP ADDMOD BYTE STOP CALLER "
				},
				"gasEstimates": {
					"creation": {
						"codeDepositCost": "146800",
						"executionCost": "infinite",
						"totalCost": "infinite"
					},
					"external": {
						"numeros(uint256)": "infinite",
						"resultado()": "infinite"
					}
				},
				"methodIdentifiers": {
					"numeros(uint256)": "f2f7cca4",
					"resultado()": "5206f100"
				}
			},
			"storageLayout": {
				"storage": [
					{
						"astId": 4,
						"contract": "EstructurasdeControl.sol:EstructuraDeControl",
						"label": "numeros",
						"offset": 0,
						"slot": "0",
						"type": "t_array(t_uint256)dyn_storage"
					},
					{
						"astId": 6,
						"contract": "EstructurasdeControl.sol:EstructuraDeControl",
						"label": "resultado",
						"offset": 0,
						"slot": "1",
						"type": "t_string_storage"
					}
				],
				"types": {
					"t_array(t_uint256)dyn_storage": {
						"base": "t_uint256",
						"encoding": "dynamic_array",
						"label": "uint256[]",
						"numberOfBytes": "32"
					},
					"t_string_storage": {
						"encoding": "bytes",
						"label": "string",
						"numberOfBytes": "32"
					},
					"t_uint256": {
						"encoding": "inplace",
						"label": "uint256",
						"numberOfBytes": "32"
					}
				}
			},
			"userdoc": {
				"kind": "user",
				"methods": {},
				"version": 1
			}
		}
	}
}